{
  "_format": "hh-sol-artifact-1",
  "contractName": "EffectsAllowList",
  "sourceName": "contracts/EffectsAllowList.sol",
  "abi": [
    {
      "inputs": [],
      "stateMutability": "nonpayable",
      "type": "constructor"
    },
    {
      "anonymous": false,
      "inputs": [
        {
          "indexed": true,
          "internalType": "bytes32",
          "name": "role",
          "type": "bytes32"
        },
        {
          "indexed": true,
          "internalType": "bytes32",
          "name": "previousAdminRole",
          "type": "bytes32"
        },
        {
          "indexed": true,
          "internalType": "bytes32",
          "name": "newAdminRole",
          "type": "bytes32"
        }
      ],
      "name": "RoleAdminChanged",
      "type": "event"
    },
    {
      "anonymous": false,
      "inputs": [
        {
          "indexed": true,
          "internalType": "bytes32",
          "name": "role",
          "type": "bytes32"
        },
        {
          "indexed": true,
          "internalType": "address",
          "name": "account",
          "type": "address"
        },
        {
          "indexed": true,
          "internalType": "address",
          "name": "sender",
          "type": "address"
        }
      ],
      "name": "RoleGranted",
      "type": "event"
    },
    {
      "anonymous": false,
      "inputs": [
        {
          "indexed": true,
          "internalType": "bytes32",
          "name": "role",
          "type": "bytes32"
        },
        {
          "indexed": true,
          "internalType": "address",
          "name": "account",
          "type": "address"
        },
        {
          "indexed": true,
          "internalType": "address",
          "name": "sender",
          "type": "address"
        }
      ],
      "name": "RoleRevoked",
      "type": "event"
    },
    {
      "inputs": [],
      "name": "DEFAULT_ADMIN_ROLE",
      "outputs": [
        {
          "internalType": "bytes32",
          "name": "",
          "type": "bytes32"
        }
      ],
      "stateMutability": "view",
      "type": "function"
    },
    {
      "inputs": [],
      "name": "LIST_MANAGER_ROLE",
      "outputs": [
        {
          "internalType": "bytes32",
          "name": "",
          "type": "bytes32"
        }
      ],
      "stateMutability": "view",
      "type": "function"
    },
    {
      "inputs": [
        {
          "components": [
            {
              "internalType": "address",
              "name": "modificatorsContract",
              "type": "address"
            },
            {
              "internalType": "string",
              "name": "serverUrl",
              "type": "string"
            },
            {
              "internalType": "address",
              "name": "owner",
              "type": "address"
            },
            {
              "internalType": "address",
              "name": "originalContract",
              "type": "address"
            }
          ],
          "internalType": "struct EffectsAllowList.EffectInfo",
          "name": "effectInfo",
          "type": "tuple"
        }
      ],
      "name": "addToList",
      "outputs": [],
      "stateMutability": "nonpayable",
      "type": "function"
    },
    {
      "inputs": [
        {
          "internalType": "address",
          "name": "originalContract",
          "type": "address"
        },
        {
          "internalType": "address",
          "name": "modificatorsContract",
          "type": "address"
        }
      ],
      "name": "checkPermission",
      "outputs": [
        {
          "internalType": "bool",
          "name": "",
          "type": "bool"
        }
      ],
      "stateMutability": "view",
      "type": "function"
    },
    {
      "inputs": [
        {
          "internalType": "uint256",
          "name": "",
          "type": "uint256"
        }
      ],
      "name": "effectsInfos",
      "outputs": [
        {
          "internalType": "address",
          "name": "modificatorsContract",
          "type": "address"
        },
        {
          "internalType": "string",
          "name": "serverUrl",
          "type": "string"
        },
        {
          "internalType": "address",
          "name": "owner",
          "type": "address"
        },
        {
          "internalType": "address",
          "name": "originalContract",
          "type": "address"
        }
      ],
      "stateMutability": "view",
      "type": "function"
    },
    {
      "inputs": [
        {
          "internalType": "address",
          "name": "modificatorsContract",
          "type": "address"
        }
      ],
      "name": "getByEffect",
      "outputs": [
        {
          "components": [
            {
              "internalType": "address",
              "name": "modificatorsContract",
              "type": "address"
            },
            {
              "internalType": "string",
              "name": "serverUrl",
              "type": "string"
            },
            {
              "internalType": "address",
              "name": "owner",
              "type": "address"
            },
            {
              "internalType": "address",
              "name": "originalContract",
              "type": "address"
            }
          ],
          "internalType": "struct EffectsAllowList.EffectInfo",
          "name": "",
          "type": "tuple"
        }
      ],
      "stateMutability": "view",
      "type": "function"
    },
    {
      "inputs": [],
      "name": "getEffectInfos",
      "outputs": [
        {
          "components": [
            {
              "internalType": "address",
              "name": "modificatorsContract",
              "type": "address"
            },
            {
              "internalType": "string",
              "name": "serverUrl",
              "type": "string"
            },
            {
              "internalType": "address",
              "name": "owner",
              "type": "address"
            },
            {
              "internalType": "address",
              "name": "originalContract",
              "type": "address"
            }
          ],
          "internalType": "struct EffectsAllowList.EffectInfo[]",
          "name": "",
          "type": "tuple[]"
        }
      ],
      "stateMutability": "view",
      "type": "function"
    },
    {
      "inputs": [
        {
          "internalType": "bytes32",
          "name": "role",
          "type": "bytes32"
        }
      ],
      "name": "getRoleAdmin",
      "outputs": [
        {
          "internalType": "bytes32",
          "name": "",
          "type": "bytes32"
        }
      ],
      "stateMutability": "view",
      "type": "function"
    },
    {
      "inputs": [
        {
          "internalType": "bytes32",
          "name": "role",
          "type": "bytes32"
        },
        {
          "internalType": "address",
          "name": "account",
          "type": "address"
        }
      ],
      "name": "grantRole",
      "outputs": [],
      "stateMutability": "nonpayable",
      "type": "function"
    },
    {
      "inputs": [
        {
          "internalType": "bytes32",
          "name": "role",
          "type": "bytes32"
        },
        {
          "internalType": "address",
          "name": "account",
          "type": "address"
        }
      ],
      "name": "hasRole",
      "outputs": [
        {
          "internalType": "bool",
          "name": "",
          "type": "bool"
        }
      ],
      "stateMutability": "view",
      "type": "function"
    },
    {
      "inputs": [
        {
          "internalType": "address",
          "name": "modificatorsContract",
          "type": "address"
        }
      ],
      "name": "removeFromList",
      "outputs": [],
      "stateMutability": "nonpayable",
      "type": "function"
    },
    {
      "inputs": [
        {
          "internalType": "bytes32",
          "name": "role",
          "type": "bytes32"
        },
        {
          "internalType": "address",
          "name": "account",
          "type": "address"
        }
      ],
      "name": "renounceRole",
      "outputs": [],
      "stateMutability": "nonpayable",
      "type": "function"
    },
    {
      "inputs": [
        {
          "internalType": "bytes32",
          "name": "role",
          "type": "bytes32"
        },
        {
          "internalType": "address",
          "name": "account",
          "type": "address"
        }
      ],
      "name": "revokeRole",
      "outputs": [],
      "stateMutability": "nonpayable",
      "type": "function"
    },
    {
      "inputs": [
        {
          "internalType": "bytes4",
          "name": "interfaceId",
          "type": "bytes4"
        }
      ],
      "name": "supportsInterface",
      "outputs": [
        {
          "internalType": "bool",
          "name": "",
          "type": "bool"
        }
      ],
      "stateMutability": "view",
      "type": "function"
    }
  ],
  "bytecode": "0x60806040523480156200001157600080fd5b50620000276000801b336200002d60201b60201c565b620001a6565b6200003f82826200004360201b60201c565b5050565b6200005582826200013460201b60201c565b6200013057600160008084815260200190815260200160002060000160008373ffffffffffffffffffffffffffffffffffffffff1673ffffffffffffffffffffffffffffffffffffffff16815260200190815260200160002060006101000a81548160ff021916908315150217905550620000d56200019e60201b60201c565b73ffffffffffffffffffffffffffffffffffffffff168173ffffffffffffffffffffffffffffffffffffffff16837f2f8788117e7eff1d82e926ec794901d17c78024a50270940304540a733656f0d60405160405180910390a45b5050565b600080600084815260200190815260200160002060000160008373ffffffffffffffffffffffffffffffffffffffff1673ffffffffffffffffffffffffffffffffffffffff16815260200190815260200160002060009054906101000a900460ff16905092915050565b600033905090565b6125a980620001b66000396000f3fe608060405234801561001057600080fd5b50600436106100ea5760003560e01c806356a79c4a1161008c578063a217fddf11610066578063a217fddf1461025b578063c9b7981414610279578063d547741f146102ac578063ebad7ed3146102c8576100ea565b806356a79c4a146101f157806391d148541461020d57806398332bbc1461023d576100ea565b8063248a9ca3116100c8578063248a9ca31461016d578063257f9abf1461019d5780632f2ff15d146101b957806336568abe146101d5576100ea565b806301ffc9a7146100ef57806304cd22a01461011f5780631a160fe91461013d575b600080fd5b610109600480360381019061010491906116cb565b6102f8565b6040516101169190611713565b60405180910390f35b610127610372565b604051610134919061192d565b60405180910390f35b6101576004803603810190610152919061197b565b610565565b6040516101649190611713565b60405180910390f35b610187600480360381019061018291906119f1565b61063d565b6040516101949190611a2d565b60405180910390f35b6101b760048036038101906101b29190611a48565b61065c565b005b6101d360048036038101906101ce9190611a75565b610a51565b005b6101ef60048036038101906101ea9190611a75565b610a7a565b005b61020b60048036038101906102069190611ad9565b610afd565b005b61022760048036038101906102229190611a75565b610c14565b6040516102349190611713565b60405180910390f35b610245610c7e565b6040516102529190611a2d565b60405180910390f35b610263610ca2565b6040516102709190611a2d565b60405180910390f35b610293600480360381019061028e9190611b58565b610ca9565b6040516102a39493929190611bde565b60405180910390f35b6102c660048036038101906102c19190611a75565b610dd1565b005b6102e260048036038101906102dd9190611a48565b610dfa565b6040516102ef9190611c8d565b60405180910390f35b60007f7965db0b000000000000000000000000000000000000000000000000000000007bffffffffffffffffffffffffffffffffffffffffffffffffffffffff1916827bffffffffffffffffffffffffffffffffffffffffffffffffffffffff1916148061036b575061036a82611009565b5b9050919050565b60606001805480602002602001604051908101604052809291908181526020016000905b8282101561055c57838290600052602060002090600402016040518060800160405290816000820160009054906101000a900473ffffffffffffffffffffffffffffffffffffffff1673ffffffffffffffffffffffffffffffffffffffff1673ffffffffffffffffffffffffffffffffffffffff16815260200160018201805461041f90611cde565b80601f016020809104026020016040519081016040528092919081815260200182805461044b90611cde565b80156104985780601f1061046d57610100808354040283529160200191610498565b820191906000526020600020905b81548152906001019060200180831161047b57829003601f168201915b505050505081526020016002820160009054906101000a900473ffffffffffffffffffffffffffffffffffffffff1673ffffffffffffffffffffffffffffffffffffffff1673ffffffffffffffffffffffffffffffffffffffff1681526020016003820160009054906101000a900473ffffffffffffffffffffffffffffffffffffffff1673ffffffffffffffffffffffffffffffffffffffff1673ffffffffffffffffffffffffffffffffffffffff168152505081526020019060010190610396565b50505050905090565b600080600180549050141561057d5760009050610637565b600061058883610dfa565b90508273ffffffffffffffffffffffffffffffffffffffff16816000015173ffffffffffffffffffffffffffffffffffffffff161480156106335750600073ffffffffffffffffffffffffffffffffffffffff16816060015173ffffffffffffffffffffffffffffffffffffffff16148061063257508373ffffffffffffffffffffffffffffffffffffffff16816060015173ffffffffffffffffffffffffffffffffffffffff16145b5b9150505b92915050565b6000806000838152602001908152602001600020600101549050919050565b6106867f4b27f99299568aa81ae1ba4670c220b444a578da13025fe3140d49e432d2bcf433610c14565b61068f57600080fd5b8073ffffffffffffffffffffffffffffffffffffffff166106af82610dfa565b6000015173ffffffffffffffffffffffffffffffffffffffff16146106d357600080fd5b6000600180805490506106e69190611d3f565b90506000600260008473ffffffffffffffffffffffffffffffffffffffff1673ffffffffffffffffffffffffffffffffffffffff168152602001908152602001600020549050818114610959576001828154811061074757610746611d73565b5b90600052602060002090600402016001828154811061076957610768611d73565b5b90600052602060002090600402016000820160009054906101000a900473ffffffffffffffffffffffffffffffffffffffff168160000160006101000a81548173ffffffffffffffffffffffffffffffffffffffff021916908373ffffffffffffffffffffffffffffffffffffffff16021790555060018201816001019080546107f290611cde565b6107fd929190611515565b506002820160009054906101000a900473ffffffffffffffffffffffffffffffffffffffff168160020160006101000a81548173ffffffffffffffffffffffffffffffffffffffff021916908373ffffffffffffffffffffffffffffffffffffffff1602179055506003820160009054906101000a900473ffffffffffffffffffffffffffffffffffffffff168160030160006101000a81548173ffffffffffffffffffffffffffffffffffffffff021916908373ffffffffffffffffffffffffffffffffffffffff1602179055509050508060026000600185815481106108e8576108e7611d73565b5b906000526020600020906004020160000160009054906101000a900473ffffffffffffffffffffffffffffffffffffffff1673ffffffffffffffffffffffffffffffffffffffff1673ffffffffffffffffffffffffffffffffffffffff168152602001908152602001600020819055505b600180548061096b5761096a611da2565b5b6001900381819060005260206000209060040201600080820160006101000a81549073ffffffffffffffffffffffffffffffffffffffff02191690556001820160006109b791906115a2565b6002820160006101000a81549073ffffffffffffffffffffffffffffffffffffffff02191690556003820160006101000a81549073ffffffffffffffffffffffffffffffffffffffff021916905550509055600260008473ffffffffffffffffffffffffffffffffffffffff1673ffffffffffffffffffffffffffffffffffffffff16815260200190815260200160002060009055505050565b610a5a8261063d565b610a6b81610a66611073565b61107b565b610a758383611118565b505050565b610a82611073565b73ffffffffffffffffffffffffffffffffffffffff168173ffffffffffffffffffffffffffffffffffffffff1614610aef576040517f08c379a0000000000000000000000000000000000000000000000000000000008152600401610ae690611e43565b60405180910390fd5b610af982826111f8565b5050565b610b277f4b27f99299568aa81ae1ba4670c220b444a578da13025fe3140d49e432d2bcf433610c14565b610b3057600080fd5b600073ffffffffffffffffffffffffffffffffffffffff16816000016020810190610b5b9190611a48565b73ffffffffffffffffffffffffffffffffffffffff161415610b7c57600080fd5b60018054905060026000836000016020810190610b999190611a48565b73ffffffffffffffffffffffffffffffffffffffff1673ffffffffffffffffffffffffffffffffffffffff1681526020019081526020016000208190555060018190806001815401808255809150506001900390600052602060002090600402016000909190919091508181610c0f91906122ef565b505050565b600080600084815260200190815260200160002060000160008373ffffffffffffffffffffffffffffffffffffffff1673ffffffffffffffffffffffffffffffffffffffff16815260200190815260200160002060009054906101000a900460ff16905092915050565b7f4b27f99299568aa81ae1ba4670c220b444a578da13025fe3140d49e432d2bcf481565b6000801b81565b60018181548110610cb957600080fd5b90600052602060002090600402016000915090508060000160009054906101000a900473ffffffffffffffffffffffffffffffffffffffff1690806001018054610d0290611cde565b80601f0160208091040260200160405190810160405280929190818152602001828054610d2e90611cde565b8015610d7b5780601f10610d5057610100808354040283529160200191610d7b565b820191906000526020600020905b815481529060010190602001808311610d5e57829003601f168201915b5050505050908060020160009054906101000a900473ffffffffffffffffffffffffffffffffffffffff16908060030160009054906101000a900473ffffffffffffffffffffffffffffffffffffffff16905084565b610dda8261063d565b610deb81610de6611073565b61107b565b610df583836111f8565b505050565b610e026115e2565b6001600260008473ffffffffffffffffffffffffffffffffffffffff1673ffffffffffffffffffffffffffffffffffffffff1681526020019081526020016000205481548110610e5557610e54611d73565b5b90600052602060002090600402016040518060800160405290816000820160009054906101000a900473ffffffffffffffffffffffffffffffffffffffff1673ffffffffffffffffffffffffffffffffffffffff1673ffffffffffffffffffffffffffffffffffffffff168152602001600182018054610ed490611cde565b80601f0160208091040260200160405190810160405280929190818152602001828054610f0090611cde565b8015610f4d5780601f10610f2257610100808354040283529160200191610f4d565b820191906000526020600020905b815481529060010190602001808311610f3057829003601f168201915b505050505081526020016002820160009054906101000a900473ffffffffffffffffffffffffffffffffffffffff1673ffffffffffffffffffffffffffffffffffffffff1673ffffffffffffffffffffffffffffffffffffffff1681526020016003820160009054906101000a900473ffffffffffffffffffffffffffffffffffffffff1673ffffffffffffffffffffffffffffffffffffffff1673ffffffffffffffffffffffffffffffffffffffff16815250509050919050565b60007f01ffc9a7000000000000000000000000000000000000000000000000000000007bffffffffffffffffffffffffffffffffffffffffffffffffffffffff1916827bffffffffffffffffffffffffffffffffffffffffffffffffffffffff1916149050919050565b600033905090565b6110858282610c14565b611114576110aa8173ffffffffffffffffffffffffffffffffffffffff1660146112d9565b6110b88360001c60206112d9565b6040516020016110c99291906123d1565b6040516020818303038152906040526040517f08c379a000000000000000000000000000000000000000000000000000000000815260040161110b919061240b565b60405180910390fd5b5050565b6111228282610c14565b6111f457600160008084815260200190815260200160002060000160008373ffffffffffffffffffffffffffffffffffffffff1673ffffffffffffffffffffffffffffffffffffffff16815260200190815260200160002060006101000a81548160ff021916908315150217905550611199611073565b73ffffffffffffffffffffffffffffffffffffffff168173ffffffffffffffffffffffffffffffffffffffff16837f2f8788117e7eff1d82e926ec794901d17c78024a50270940304540a733656f0d60405160405180910390a45b5050565b6112028282610c14565b156112d557600080600084815260200190815260200160002060000160008373ffffffffffffffffffffffffffffffffffffffff1673ffffffffffffffffffffffffffffffffffffffff16815260200190815260200160002060006101000a81548160ff02191690831515021790555061127a611073565b73ffffffffffffffffffffffffffffffffffffffff168173ffffffffffffffffffffffffffffffffffffffff16837ff6391f5c32d9c69d2a47ea670b442974b53935d1edc7fd64eb21e047a839171b60405160405180910390a45b5050565b6060600060028360026112ec919061242d565b6112f69190612487565b67ffffffffffffffff81111561130f5761130e611fb6565b5b6040519080825280601f01601f1916602001820160405280156113415781602001600182028036833780820191505090505b5090507f30000000000000000000000000000000000000000000000000000000000000008160008151811061137957611378611d73565b5b60200101907effffffffffffffffffffffffffffffffffffffffffffffffffffffffffffff1916908160001a9053507f7800000000000000000000000000000000000000000000000000000000000000816001815181106113dd576113dc611d73565b5b60200101907effffffffffffffffffffffffffffffffffffffffffffffffffffffffffffff1916908160001a9053506000600184600261141d919061242d565b6114279190612487565b90505b60018111156114c7577f3031323334353637383961626364656600000000000000000000000000000000600f86166010811061146957611468611d73565b5b1a60f81b8282815181106114805761147f611d73565b5b60200101907effffffffffffffffffffffffffffffffffffffffffffffffffffffffffffff1916908160001a905350600485901c9450806114c0906124dd565b905061142a565b506000841461150b576040517f08c379a000000000000000000000000000000000000000000000000000000000815260040161150290612553565b60405180910390fd5b8091505092915050565b82805461152190611cde565b90600052602060002090601f0160209004810192826115435760008555611591565b82601f106115545780548555611591565b8280016001018555821561159157600052602060002091601f016020900482015b82811115611590578254825591600101919060010190611575565b5b50905061159e919061164c565b5090565b5080546115ae90611cde565b6000825580601f106115c057506115df565b601f0160209004906000526020600020908101906115de919061164c565b5b50565b6040518060800160405280600073ffffffffffffffffffffffffffffffffffffffff16815260200160608152602001600073ffffffffffffffffffffffffffffffffffffffff168152602001600073ffffffffffffffffffffffffffffffffffffffff1681525090565b5b8082111561166557600081600090555060010161164d565b5090565b600080fd5b600080fd5b60007fffffffff0000000000000000000000000000000000000000000000000000000082169050919050565b6116a881611673565b81146116b357600080fd5b50565b6000813590506116c58161169f565b92915050565b6000602082840312156116e1576116e0611669565b5b60006116ef848285016116b6565b91505092915050565b60008115159050919050565b61170d816116f8565b82525050565b60006020820190506117286000830184611704565b92915050565b600081519050919050565b600082825260208201905092915050565b6000819050602082019050919050565b600073ffffffffffffffffffffffffffffffffffffffff82169050919050565b60006117858261175a565b9050919050565b6117958161177a565b82525050565b600081519050919050565b600082825260208201905092915050565b60005b838110156117d55780820151818401526020810190506117ba565b838111156117e4576000848401525b50505050565b6000601f19601f8301169050919050565b60006118068261179b565b61181081856117a6565b93506118208185602086016117b7565b611829816117ea565b840191505092915050565b600060808301600083015161184c600086018261178c565b506020830151848203602086015261186482826117fb565b9150506040830151611879604086018261178c565b50606083015161188c606086018261178c565b508091505092915050565b60006118a38383611834565b905092915050565b6000602082019050919050565b60006118c38261172e565b6118cd8185611739565b9350836020820285016118df8561174a565b8060005b8581101561191b57848403895281516118fc8582611897565b9450611907836118ab565b925060208a019950506001810190506118e3565b50829750879550505050505092915050565b6000602082019050818103600083015261194781846118b8565b905092915050565b6119588161177a565b811461196357600080fd5b50565b6000813590506119758161194f565b92915050565b6000806040838503121561199257611991611669565b5b60006119a085828601611966565b92505060206119b185828601611966565b9150509250929050565b6000819050919050565b6119ce816119bb565b81146119d957600080fd5b50565b6000813590506119eb816119c5565b92915050565b600060208284031215611a0757611a06611669565b5b6000611a15848285016119dc565b91505092915050565b611a27816119bb565b82525050565b6000602082019050611a426000830184611a1e565b92915050565b600060208284031215611a5e57611a5d611669565b5b6000611a6c84828501611966565b91505092915050565b60008060408385031215611a8c57611a8b611669565b5b6000611a9a858286016119dc565b9250506020611aab85828601611966565b9150509250929050565b600080fd5b600060808284031215611ad057611acf611ab5565b5b81905092915050565b600060208284031215611aef57611aee611669565b5b600082013567ffffffffffffffff811115611b0d57611b0c61166e565b5b611b1984828501611aba565b91505092915050565b6000819050919050565b611b3581611b22565b8114611b4057600080fd5b50565b600081359050611b5281611b2c565b92915050565b600060208284031215611b6e57611b6d611669565b5b6000611b7c84828501611b43565b91505092915050565b611b8e8161177a565b82525050565b600082825260208201905092915050565b6000611bb08261179b565b611bba8185611b94565b9350611bca8185602086016117b7565b611bd3816117ea565b840191505092915050565b6000608082019050611bf36000830187611b85565b8181036020830152611c058186611ba5565b9050611c146040830185611b85565b611c216060830184611b85565b95945050505050565b6000608083016000830151611c42600086018261178c565b5060208301518482036020860152611c5a82826117fb565b9150506040830151611c6f604086018261178c565b506060830151611c82606086018261178c565b508091505092915050565b60006020820190508181036000830152611ca78184611c2a565b905092915050565b7f4e487b7100000000000000000000000000000000000000000000000000000000600052602260045260246000fd5b60006002820490506001821680611cf657607f821691505b60208210811415611d0a57611d09611caf565b5b50919050565b7f4e487b7100000000000000000000000000000000000000000000000000000000600052601160045260246000fd5b6000611d4a82611b22565b9150611d5583611b22565b925082821015611d6857611d67611d10565b5b828203905092915050565b7f4e487b7100000000000000000000000000000000000000000000000000000000600052603260045260246000fd5b7f4e487b7100000000000000000000000000000000000000000000000000000000600052603160045260246000fd5b7f416363657373436f6e74726f6c3a2063616e206f6e6c792072656e6f756e636560008201527f20726f6c657320666f722073656c660000000000000000000000000000000000602082015250565b6000611e2d602f83611b94565b9150611e3882611dd1565b604082019050919050565b60006020820190508181036000830152611e5c81611e20565b9050919050565b60008135611e708161194f565b80915050919050565b60008160001b9050919050565b600073ffffffffffffffffffffffffffffffffffffffff611ea684611e79565b9350801983169250808416831791505092915050565b6000819050919050565b6000611ee1611edc611ed78461175a565b611ebc565b61175a565b9050919050565b6000611ef382611ec6565b9050919050565b6000611f0582611ee8565b9050919050565b6000819050919050565b611f1f82611efa565b611f32611f2b82611f0c565b8354611e86565b8255505050565b600080fd5b600080fd5b600080fd5b60008083356001602003843603038112611f6557611f64611f39565b5b80840192508235915067ffffffffffffffff821115611f8757611f86611f3e565b5b602083019250600182023603831315611fa357611fa2611f43565b5b509250929050565b600082905092915050565b7f4e487b7100000000000000000000000000000000000000000000000000000000600052604160045260246000fd5b60008190508160005260206000209050919050565b60006020601f8301049050919050565b600082821b905092915050565b6000600883026120477fffffffffffffffffffffffffffffffffffffffffffffffffffffffffffffffff8261200a565b612051868361200a565b95508019841693508086168417925050509392505050565b600061208461207f61207a84611b22565b611ebc565b611b22565b9050919050565b6000819050919050565b61209e83612069565b6120b26120aa8261208b565b848454612017565b825550505050565b600090565b6120c76120ba565b6120d2818484612095565b505050565b5b818110156120f6576120eb6000826120bf565b6001810190506120d8565b5050565b601f82111561213b5761210c81611fe5565b61211584611ffa565b81016020851015612124578190505b61213861213085611ffa565b8301826120d7565b50505b505050565b600082821c905092915050565b600061215e60001984600802612140565b1980831691505092915050565b6000612177838361214d565b9150826002028217905092915050565b6121918383611fab565b67ffffffffffffffff8111156121aa576121a9611fb6565b5b6121b48254611cde565b6121bf8282856120fa565b6000601f8311600181146121ee57600084156121dc578287013590505b6121e6858261216b565b86555061224e565b601f1984166121fc86611fe5565b60005b82811015612224578489013582556001820191506020850194506020810190506121ff565b86831015612241578489013561223d601f89168261214d565b8355505b6001600288020188555050505b50505050505050565b612262838383612187565b505050565b60008101600083018061227981611e63565b90506122858184611f16565b505050600181016020830161229a8185611f48565b6122a5818386612257565b505050506002810160408301806122bb81611e63565b90506122c78184611f16565b5050506003810160608301806122dc81611e63565b90506122e88184611f16565b5050505050565b6122f98282612267565b5050565b600081905092915050565b7f416363657373436f6e74726f6c3a206163636f756e7420000000000000000000600082015250565b600061233e6017836122fd565b915061234982612308565b601782019050919050565b600061235f8261179b565b61236981856122fd565b93506123798185602086016117b7565b80840191505092915050565b7f206973206d697373696e6720726f6c6520000000000000000000000000000000600082015250565b60006123bb6011836122fd565b91506123c682612385565b601182019050919050565b60006123dc82612331565b91506123e88285612354565b91506123f3826123ae565b91506123ff8284612354565b91508190509392505050565b600060208201905081810360008301526124258184611ba5565b905092915050565b600061243882611b22565b915061244383611b22565b9250817fffffffffffffffffffffffffffffffffffffffffffffffffffffffffffffffff048311821515161561247c5761247b611d10565b5b828202905092915050565b600061249282611b22565b915061249d83611b22565b9250827fffffffffffffffffffffffffffffffffffffffffffffffffffffffffffffffff038211156124d2576124d1611d10565b5b828201905092915050565b60006124e882611b22565b915060008214156124fc576124fb611d10565b5b600182039050919050565b7f537472696e67733a20686578206c656e67746820696e73756666696369656e74600082015250565b600061253d602083611b94565b915061254882612507565b602082019050919050565b6000602082019050818103600083015261256c81612530565b905091905056fea26469706673582212200436543ecffac32a21c5cd3203196f57e20891eeeb0ac34bd2ddd42ab8a2c67e64736f6c63430008090033",
  "linkReferences": {},
  "deployedLinkReferences": {}
}